S0100000436F666665496E432E7372656337
S11300000C9417010C9434010C9434010C943401B5
S11300100C9434010C9434010C9434010C94340188
S11300200C9434010C9434010C9434010C94340178
S11300300C9434010C9434010C9434010C94340168
S11300400C9434010C9434010C9434010C94340158
S11300500C9434010C9434010C9434010C94340148
S11300600C9434010C9434013D0846084F0856089A
S11300705F0866086D0874087B0882088B0892087C
S1130080000A1F1F1F0E046E6F73206573636F6C6D
S113009068657220004F6272696761646F28612924
S11300A020706F720065737461286F292070726FFD
S11300B06E746F2873290053657528732920636152
S11300C06665287329006E6F20636F706F2000636C
S11300D0686F636F6C61746500616375636172005E
S11300E06C65697465006361666500436F6C6F637A
S11300F0616E646F20002053696D202020204E61C2
S11301006F00446573656A612063686F636F2E20B6
S11301104300446573656A6120616375636172209D
S11301204300446573656A61206C656974652043A6
S113013000446973706F6E6976656C3A2000436F92
S11301406E73756D6F3A20006E6F20636F706F0071
S11301504361666520636F6C6F6361646F006E61F9
S1130160206D617175696E613A00436F6C6F7175D2
S1130170652063616665002050657120204D6564CB
S11301802020477261200053656C6563696F6E655A
S11301903A006F207469706F20646F20636F706F12
S11301A00053722E2073656C6563696F6E65007110
S11301B075616E746F7320636F706F733A0053725E
S11301C020676F73746172696120646500646F20D5
S11301D0636F706F20007265746972616461006599
S11301E06E74726164610020726574697261646F17
S11301F00020636F6C6F6361646F00436F706F20E6
S113020000416775617264616E646F2061200056FD
S1130210616920756D20636166653F0042656D2DDF
S113022076696E646F286129002020200000112463
S11302301FBECFEFD8E0DEBFCDBF11E0A0E0B1E03C
S1130240E2E9F1E102C005900D92AA30B107D9F7B5
S113025021E0AAE0B1E001C01D92AA31B207E1F7A2
S11302600E9405080C94C7080C940000611102C098
S11302705C9801C05C9A9BB1907F282F22952F70C7
S1130280922B9BB995E09A95F1F700005D9A95E061
S11302909A95F1F700005D9890EF9A95F1F79BB16C
S11302A0907F282F2F70922B9BB995E09A95F1F7A8
S11302B000005D9A95E09A95F1F700005D9890EF43
S11302C09A95F1F7611108C0843030F48FE39FE10F
S11302D00197F1F700C0000008955C985D982FEF36
S11302E089EF90E0215080409040E1F700C0000089
S11302F08BB1807F83608BB925E02A95F1F70000EC
S11303005D9A85E08A95F1F700005D9890EF9A95E3
S1130310F1F78FE19EE40197F1F700C0000095E04A
S11303209A95F1F700005D9A25E02A95F1F700000F
S11303305D9880EF8A95F1F78FE193E00197F1F7EB
S113034000C0000095E09A95F1F700005D9A25E061
S11303502A95F1F700005D9880EF8A95F1F78BB14B
S1130360807F82608BB995E09A95F1F700005D9AE1
S113037025E02A95F1F700005D9880EF8A95F1F762
S113038060E088E20E94360160E088E00E94360165
S113039060E081E00E94360160E08CE00E9436015A
S11303A060E080E80E9436010895CF93DF93EC016A
S11303B0FC018491882351F0FE01849161E00E9444
S11303C036012196FE0184918111F6CFDF91CF9100
S11303D00895CF93C82F862F60E00E94360161E014
S11303E080E38C0F0E943601CF9108951F93CF9321
S11303F0DF93C62F8A309105ACF06AE070E00E946A
S11304009908162FD82F60E08C2F0E94360161E0E6
S113041080E3810F0E94360161E080E38D0F0E942A
S113042036010BC00E94E90160E081E08C0F0E945C
S1130430360161E080E20E943601DF91CF911F9185
S11304400895CF93C62F81309105D9F460E08C2FA5
S11304500E94360161E08EE30E94360160E085E08F
S11304608C0F0E94360161E080E20E94360160E058
S11304708AE08C0F0E94360161E080E20E9436011E
S11304803AC082309105D9F460E085E08C0F0E9477
S1130490360161E08EE30E94360160E08C2F0E94F9
S11304A0360161E080E20E94360160E08AE08C0F50
S11304B00E94360161E080E20E9436011CC003976D
S11304C0D1F460E08AE08C0F0E94360161E08EE393
S11304D00E94360160E08C2F0E94360161E080E2C8
S11304E00E94360160E085E08C0F0E94360161E0D5
S11304F080E20E943601CF910895CF93C62F0097D2
S113050091F460E08C2F0E94360161E08EE30E943A
S1130510360160E087E08C0F0E94360161E080E2E2
S11305200E94360113C0019789F460E087E08C0FC4
S11305300E94360161E08EE30E94360160E08C2F58
S11305400E94360161E080E20E943601CF91089555
S11305501816190644F4EFE9FFE03197F1F700C0EB
S113056000000197C1F7089560E081E00E94360120
S113057060E084E10E943601309B23C060E080E8A3
S11305800E9436018CE192E00E94D50160E080EC8B
S11305900E9436018FE092E00E94D50161E080E084
S11305A00E94360160E08CE10E9436012FEF82E563
S11305B097E0215080409040E1F700C0000030995E
S11305C0DDCF60E080E80E94360160E081E00E94B7
S11305D036010895BF92CF92DF92EF92FF920F936C
S11305E01F93CF93DF936C017B01EA01B22E622F3C
S11305F088819981F801099537C031991FC0888194
S113060099818E159F0539F4D982C8826B2DC60154
S1130610F801099509C08E159F0530F40196998358
S113062088836B2DF8010995FFEF24E38CE0F150EA
S113063020408040E1F700C0000016C0329914C089
S113064088819981C816D90631F0019799838883E6
S11306506B2DF8010995FFEF24E38CE0F150204065
S11306608040E1F700C000003399C7CF6B2D88812B
S11306709981F8010995DF91CF911F910F91FF9016
S1130680EF90DF90CF90BF9008950F931F9360E099
S113069081E00E94360160E080E80E9436018EEB22
S11306A091E00E94D50160E080EC0E9436018FEA5F
S11306B091E00E94D50109EE11E02FEC44E051E0F5
S11306C062E070E081E090E00E94EA021F910F91E5
S11306D00895EF92FF920F931F93CF93DF9360E0FF
S11306E081E00E94360160E080E80E94360181EAE0
S11306F091E00E94D50160E080EC0E94360182E91D
S113070091E00E94D5012FEF8DE399E421508040C0
S11307109040E1F700C0000060E081E00E943601F3
S1130720809104019091050118161906D4F50F2E35
S1130730F0E0EF2EF1E0FF2EF02DC0E0D0E060E01D
S113074080E80E94360187E891E00E94D50160E0CC
S113075080EC0E94360187E791E00E94D50101E216
S113076012E020ECA70163E070E081E090E00E94D9
S1130770EA0260E081E00E9436012FEF89E698E109
S1130780215080409040E1F700C000002196809104
S113079004019091050122E0E20EF11CC817D9076B
S11307A074F2019721F41092030110920201DF9177
S11307B0CF911F910F91FF90EF9008950F931F9386
S11307C060E081E00E94360160E080E80E9436012A
S11307D08AE691E00E94D50160E080EC0E94360137
S11307E08EE591E00E94D50106EF11E02DEC48E082
S11307F051E064E170E081E090E00E94EA021F9120
S11308000F910895CF93DF93EC0160E081E00E94A3
S1130810360160E080E80E9436018EE391E00E9498
S1130820D50168E8CE010E94F60160E080EC0E94E8
S1130830360181E391E00E94D5016BEC80910601C1
S1130840909107010E94F6012FEF87EA91E621506B
S113085080409040E1F700C00000DF91CF910895FF
S11308600F931F93CF93DF93EC0180910601909136
S113087007019923A4F501E010E08C0F9D1F9093CC
S11308800701809306010E94DE0380910601909186
S113089007012091080130910901AC01420F531F57
S11308A04C1B5D0B4AF08C1B9D0B820F931F909386
S11308B00701809306010AC08C1B9D0B90930701CE
S11308C0809306011093090100930801CE010E9450
S11308D002048091060190910701992374F2CE01DC
S11308E00E940204DF91CF911F910F910895CF933D
S11308F0DF93EC0160E081E00E94360160E080E873
S11309000E94360180E591E00E94D50160E080EC10
S11309100E94360188E491E00E94D50168ECCE0182
S113092001960E94E9012FEF8EE994E22150804064
S11309309040E1F700C00000DF91CF91089560E09E
S113094081E00E94360160E080E80E94360187EB76
S113095090E00E94D50160E080EC0E94360185EAB7
S113096090E00E94D5012FEF87EA91E62150804064
S11309709040E1F700C000000895CF93DF9360E05A
S113098081E00E943601C2E3D0E060E080E80E948A
S1130990360185E990E00E94D50160E080EC0E9478
S11309A0360187E890E00E94D50161E080E00E9472
S11309B0360160E08CE10E9436012FEF82E597E07A
S11309C0215080409040E1F700C000002197E9F6F3
S11309D0DF91CF910895BF92CF92DF92EF92FF9271
S11309E00F931F93CF93DF9341155105E9F1EB0169
S11309F0F82E6A0100E010E0BB24B394B80E6894AA
S1130A00EE24E1F8E80E60E08F2D0E94360161E0EB
S1130A108EE20E943601CE010E94A80260E08B2D76
S1130A200E94360161E08EE20E943601CE010E94EE
S1130A30A80260E08E2D0E94360161E08EE20E94E1
S1130A403601CE010E94A80260E08F2D0E9436017B
S1130A5089E292E00E94D501CE010E94A8020F5FB4
S1130A601F4F0C151D0579F6DF91CF911F910F9142
S1130A70FF90EF90DF90CF90BF9008950F931F9356
S1130A80CF93DF93209104013091050112161306D0
S1130A900CF054C08C01C0E0D0E060E081E00E9422
S1130AA0360160E080E80E94360181E092E00E9415
S1130AB0D501C8010E94D50160E080EC0E94360196
S1130AC08DEC91E00E94D501219668ECCE010E9444
S1130AD0E901349B09C041E050E06BE470E089EC2B
S1130AE00E94EB043499F7CF60E081E00E94360164
S1130AF08BEF91E00E94D50165E8CE010E94E901E7
S1130B0021E00F3D120729F481EF91E00E94D50105
S1130B1004C087EE91E00E94D5018FEF9DE329E4A4
S1130B20815090402040E1F700C000008091040112
S1130B3090910501C817D9070CF4AFCFDF91CF917D
S1130B401F910F910895EF92FF920F931F93CF93EC
S1130B507C018B01C42F60E081E00E94360160E0DB
S1130B6080E80E9436018BEE90E00E94D501C70117
S1130B700E94D50160E080EC0E94360186EC90E092
S1130B800E94D50168ECC80101960E94E90143E086
S1130B9050E066E970E08C2F0E94EB04CF911F9126
S1130BA00F91FF90EF9008950F931F93CF93DF93CE
S1130BB02FEF81EE94E0215080409040E1F700C097
S1130BC000008091040190910501181619060CF09B
S1130BD069C000E011E0C0E0D0E0F801819191919A
S1130BE08F01009709F44CC081309105B9F48091CC
S1130BF006019091070102979093070180930601E3
S1130C0082E090E00E94300449ECBE0186EE90E060
S1130C100E94A305CE010E94770432C08230910560
S1130C20B9F480910601909107010397909307010D
S1130C308093060183E090E00E94300449ECBE01F9
S1130C4086EE90E00E94A305CE010E94770418C0AE
S1130C500397B1F480910601909107010497909352
S1130C6007018093060184E090E00E94300449EC7F
S1130C70BE0186EE90E00E94A305CE010E94770497
S1130C80FFEF29E688E1F15020408040E1F700C001
S1130C90000021968091040190910501C817D9079D
S1130CA00CF49BCFDF91CF911F910F910895AF92D8
S1130CB0BF92CF92DF92EF92FF920F931F93CF9345
S1130CC0DF9360E081E00E943601809104019091FD
S1130CD00501181619060CF047C0C6E1D1E0C12C75
S1130CE0D12C60E080E80E94360182E291E00E940B
S1130CF0D50156012FEFA21AB20A6EE8C5010E946F
S1130D00E90160E080EC0E94360186EF90E00E94E9
S1130D10D5010DE712E020ECAE0161E070E080E067
S1130D2090E00E94EA0260E081E00E94360188813E
S1130D3099812296892B31F449ECB60180EE90E03A
S1130D400E94A3058FEF99E628E18150904020404E
S1130D50E1F700C000006501809104019091050154
S1130D60A816B9060CF4BDCFDF91CF911F910F9156
S1130D70FF90EF90DF90CF90BF90AF900895AF9227
S1130D80BF92CF92DF92EF92FF920F931F93CF9374
S1130D90DF9360E081E00E9436018091040190912C
S1130DA00501181619060CF047C0C2E1D1E0C12CA8
S1130DB0D12C60E080E80E94360182E191E00E943B
S1130DC0D50156012FEFA21AB20A6FE8C5010E949D
S1130DD0E90160E080EC0E94360186EF90E00E9419
S1130DE0D5010DE712E020ECAE0161E070E080E097
S1130DF090E00E94EA0260E081E00E94360188816E
S1130E0099812296892B31F449ECB60189ED90E061
S1130E100E94A3058FEF99E628E18150904020407D
S1130E20E1F700C000006501809104019091050183
S1130E30A816B9060CF4BDCFDF91CF911F910F9185
S1130E40FF90EF90DF90CF90BF90AF900895AF9256
S1130E50BF92CF92DF92EF92FF920F931F93CF93A3
S1130E60DF9360E081E00E9436018091040190915B
S1130E700501181619060CF047C0CEE0D1E0C12CCC
S1130E80D12C60E080E80E94360182E091E00E946B
S1130E90D50156012FEFA21AB20A6FE8C5010E94CC
S1130EA0E90160E080EC0E94360186EF90E00E9448
S1130EB0D5010DE712E020ECAE0161E070E080E0C6
S1130EC090E00E94EA0260E081E00E94360188819D
S1130ED099812296892B31F449ECB6018FEC90E08C
S1130EE00E94A3058FEF99E628E1815090402040AD
S1130EF0E1F700C0000065018091040190910501B3
S1130F00A816B9060CF4BDCFDF91CF911F910F91B4
S1130F10FF90EF90DF90CF90BF90AF9008950F9324
S1130F201F93CF93DF93EC0180910A0190910B0101
S1130F30089660E0880F880F880F0E9436018E01A2
S1130F40095F1F4FFE01849161E00E9436012196E2
S1130F500C171D07B9F761E080E00E94360160E0DC
S1130F6080E80E94360180910A0190910B0101965C
S1130F7090930B0180930A01DF91CF911F910F9100
S1130F8008958FEF84B917B88AB915B888B91BB812
S1130F900E946D0160E081E00E94360180E890E0EB
S1130FA00E948F070895CF93DF9381E090E09093A0
S1130FB0090180930801909305018093040120E0C6
S1130FC031E0F90191838083C6E1D1E0198218826E
S1130FD0A2E1B1E011961C921E924EE051E0FA019A
S1130FE011821082F901938382831B821A821396E1
S1130FF01C921E921297FA011382128210920B0114
S113100010920A01DF91CF9108950E94C10760E018
S113101081E00E9436010F2EFBE08F2E912CF02DE3
S11310200F2EFAE0AF2EB12CF02D0F2EF9E0CF2EBB
S1131030D12CF02D6894EE24E3F8F12C07E010E0B5
S1131040C6E0D0E00F2EF5E06F2E712CF02D6894E1
S1131050442442F8512C0F2EF3E02F2E312CF02D86
S113106090910C0180910D01E92FF82FEC30F105DE
S1131070D8F7EC5CFF4F0C94AD080E94B40281E0F9
S113108090E090930D0180930C01EACF0E944503F8
S113109082E090E090930D0180930C01E1CF0E94D7
S11310A0690330920D0120920C01DACF8FED91E0AB
S11310B00E943E0550920D0140920C01D1CF0E9436
S11310C0D40570920D0160920C01CACF0E9457069C
S11310D0D0930D01C0930C01C3CF0E94BF0610939F
S11310E00D0100930C01BCCF0E942707F0920D0163
S11310F0E0920C01B5CF0E949F04D0920D01C092E2
S11311000C01AECF86ED91E00E943E05B0920D0138
S1131110A0920C01A5CF0E94BD0490920D01809273
S11311200C019ECF0E94D30710920D0110920C0166
S113113097CF97FB072E16F4009407D077FD09D0BC
S11311400E94B30807FC05D03EF4909581959F4F0B
S11311500895709561957F4F0895EE0FFF1F0590D8
S1131160F491E02D0994AA1BBB1B51E107C0AA1FEF
S1131170BB1FA617B70710F0A61BB70B881F991F34
S11311805A95A9F780959095BC01CD010895F894DE
S1051190FFCF8B
S10D11920100010001001400010037
S9030000FC
